:020000040800F2
:1000000080B483B000AF0346FB710B46BB7113464F
:100010007B71FB79022B00F2EC80BB790F2B40F255
:10002000E880FB79022B00F0A880022B00F3E1802E
:10003000002B02D0012B51D0DBE0BB79072B23D85A
:100040006E4B1B68BA7992000F2101FA02F2D2437B
:1000500011466A4A0B401360684B1B687979BA797C
:10006000920001FA02F21146644A0B4313607B7955
:10007000082B02D1624B1B68B8E07B79082B40F05B
:10008000B5805F4B1B68B1E0BB790F2B00F2AE80EF
:100090007B79082B02D15A4B1B6804E07B79082B33
:1000A00001D1574B1B68BB79083BBB71554B1B6893
:1000B000BA7992000F2101FA02F2D2431146514A55
:1000C0000B4013604F4B1B687979BA79920001FAA3
:1000D00002F211464B4A0B43136087E0BB79072BB2
:1000E00022D8494B1B68BA7992000F2101FA02F21B
:1000F000D2431146444A0B401360434B1B68797945
:10010000BA79920001FA02F211463F4A0B4313609A
:100110007B79082B02D13D4B1B6869E07B79082B6A
:1001200066D13A4B1B6863E0BB790F2B60D87B79B3
:10013000082B02D1354B1B6804E07B79082B01D1D9
:10014000324B1B68BB79083BBB71314B1B68BA79DA
:1001500092000F2101FA02F2D24311462C4A0B40C1
:1001600013602B4B1B687979BA79920001FA02F27D
:100170001146274A0B4313603AE0BB79072B17D887
:10018000244B1B68BA7992000F2101FA02F2D24384
:100190001146204A0B4013601E4B1B687979BA79CF
:1001A000920001FA02F211461A4A0B43136011E061
:1001B000BB790F2B0ED8BB79083BBB71164B1B6864
:1001C000BA7992000F2101FA02F2D2431146124A83
:1001D0000B401360104B1B687979BA79920001FAD1
:1001E00002F211460C4A0B43136002E000BF00E02C
:1001F00000BF00BF0C37BD4680BC704700080140FF
:100200000C08014004080140000C01400C0C0140A6
:10021000040C0140001001400410014080B483B080
:1002200000AF0346FB710B46BB7113467B71FB7934
:10023000022B35D8BB790F2B32D9FB79022B1ED07C
:10024000022B2DDC002B02D0012B0CD028E07B7977
:10025000012B02D1154B1B681DE07B79002B1AD1B5
:10026000134B1B6817E07B79012B02D1114B1B68E4
:1002700013E07B79002B10D10F4B1B680DE07B79CD
:10028000012B02D10D4B1B6809E07B79002B06D1B5
:100290000B4B1B6803E000BF02E000BF00E000BFA3
:1002A00000BF0C37BD4680BC704700BF100801403E
:1002B00014080140100C0140140C014010100140C2
:1002C0001410014080B483B000AF03460A46FB71AE
:1002D0001346BB71FB79022B3BD8FB79022B24D050
:1002E000022B36DC002B02D0012B0FD031E0BB7982
:1002F000012B04D1194B4FF0FF321A6024E0BB7977
:10030000002B21D1154B00221A601DE0BB79012B77
:1003100004D1134B4FF0FF321A6017E0BB79002B6A
:1003200014D10F4B00221A6010E0BB79012B04D1CD
:100330000C4B4FF0FF321A600AE0BB79002B07D15B
:10034000084B00221A6003E000BF02E000BF00E09B
:1003500000BF00BF0C37BD4680BC70470C08014091
:100360000C0C01400C10014080B483B000AF034678
:100370000A46FB711346BB71FB79022B2AD8BB7965
:100380000F2B27D9FB79022B1AD0022B22DC002B52
:1003900002D0012B0AD01DE0114B1A68BB7902FA7A
:1003A00003F3DBB203F00103DBB213E00D4B1A6879
:1003B000BB7902FA03F3DBB203F00103DBB209E01D
:1003C000094B1A68BB7902FA03F3DBB203F00103AD
:1003D000DBB2FFE718460C37BD4680BC704700BF54
:1003E00008080140080C01400810014080B483B0A7
:1003F00000AF0346FB71FB79432B10D9FB791F2B10
:1004000002D8094B1B680AE0FB793F2B02D8074B47
:100410001B6804E0FB79432B01D8054B1B6800BF28
:100420000C37BD4680BC704700E100E004E100E00D
:1004300008E100E080B483B000AF0346FB71FB79B4
:10044000432B10D9FB791F2B02D8094B1B680AE0FC
:10045000FB793F2B02D8074B1B6804E0FB79432B49
:1004600001D8054B1B6800BF0C37BD4680BC7047E8
:1004700080E100E084E100E088E100E080B483B046
:1004800000AF0346FB71FB79432B10D9FB791F2B7F
:1004900002D8094B1B680AE0FB793F2B02D8074BB7
:1004A0001B6804E0FB79432B01D8054B1B6800BF98
:1004B0000C37BD4680BC704700E200E004E200E07B
:1004C00008E200E080B483B000AF0346FB71FB7923
:1004D000432B10D9FB791F2B02D8094B1B680AE06C
:1004E000FB793F2B02D8074B1B6804E0FB79432BB9
:1004F00001D8054B1B6800BF0C37BD4680BC704758
:1005000080E200E084E200E088E200E080B483B0B2
:1005100000AF0346FB71FB79432B26D9FB791F2BD8
:1005200009D8144B1A68FB7902FA03F3DBB203F023
:100530000103DBB219E0FB793F2B09D80E4B1A6897
:10054000FB7902FA03F3DBB203F00103DBB20CE048
:10055000FB79432B09D8094B1A68FB7902FA03F39C
:10056000DBB203F00103DBB2FFE718460C37BD46F0
:1005700080BC704780E200E084E200E088E200E0B6
:1005800080B483B000AF0346FB71044AFB7913606B
:1005900000BF0C37BD4680BC704700BF00EF00E0D5
:1005A00080B483B000AF0346FB71044AFB7913604B
:1005B00000BF0C37BD4680BC704700BF0CED00E0AB
:1005C00080B483B000AF0346FB710B46BB7113468A
:1005D0007B717A79BB7913437B71FB7903F16043BB
:1005E00003F564437A791201D2B21A7000BF0C3756
:1005F000BD4680BC704700BF80B400AF044B812271
:100600001A60044B00221A6000BFBD4680BC7047D0
:10061000001002400410024080B483B000AF0346D3
:100620000A46FB711346BB71BB791F2B12D8FB79AD
:10063000032B0CD0032B0DDC012B02D0022B03D09B
:1006400008E0074B1B6805E0064B1B6802E0064B01
:100650001B6800BF00BF0C37BD4680BC704700BFA1
:10066000141002401C1002401810024080B483B0E5
:1006700000AF03460A46FB711346BB71BB791F2BC3
:1006800012D8FB79032B0CD0032B0DDC012B02D0ED
:10069000022B03D008E0074B1B6805E0064B1B68E4
:1006A00002E0064B1B6800BF00BF0C37BD4680BC94
:1006B000704700BF141002401C1002401810024086
:1006C00080B483B000AF78607B68B3F5000F0CD3C3
:1006D000084A7B681360084B1B6800BF064B1B6809
:1006E0001B0403F00103002BF8D000BF0C37BD46FC
:1006F00080BC704714E000E010E000E080B400AF80
:10070000034B1B68024B1B6800BFBD4680BC704793
:1007100010E000E080B400AF024B1B6800BFBD4694
:1007200080BC704710E000E080B400AF024B1B6853
:1007300000BFBD4680BC704710E000E080B582B0CD
:1007400000AF786039607B68B3F5000F04D3074AC7
:100750007B681360064B1B68FFF7DCFF054A3B68AC
:10076000136000BF0837BD4680BD00BF14E000E045
:1007700010E000E00000002080B500AF024B1B68D5
:10078000984700BF80BD00BF0000002080B500AFCB
:10079000FFF732FF00210320FFF73EFF0121032076
:1007A000FFF73AFF02210320FFF736FF0321032062
:1007B000FFF732FF022201210020FFF721FC09226E
:1007C00002210020FFF71CFC022203210120FFF779
:1007D00017FC022204210020FFF712FC022205214F
:1007E0000020FFF70DFC022206210020FFF708FC85
:0407F000FEE7000020
:0400000508000000EF
:00000001FF
